{
  "contractName": "Hannah",
  "abi": [
    {
      "inputs": [],
      "stateMutability": "nonpayable",
      "type": "constructor"
    },
    {
      "anonymous": false,
      "inputs": [
        {
          "indexed": true,
          "internalType": "address",
          "name": "owner",
          "type": "address"
        },
        {
          "indexed": true,
          "internalType": "address",
          "name": "spender",
          "type": "address"
        },
        {
          "indexed": false,
          "internalType": "uint256",
          "name": "value",
          "type": "uint256"
        }
      ],
      "name": "Approval",
      "type": "event"
    },
    {
      "anonymous": false,
      "inputs": [
        {
          "indexed": true,
          "internalType": "address",
          "name": "from",
          "type": "address"
        },
        {
          "indexed": true,
          "internalType": "address",
          "name": "to",
          "type": "address"
        },
        {
          "indexed": false,
          "internalType": "uint256",
          "name": "value",
          "type": "uint256"
        }
      ],
      "name": "Transfer",
      "type": "event"
    },
    {
      "inputs": [
        {
          "internalType": "address",
          "name": "",
          "type": "address"
        },
        {
          "internalType": "address",
          "name": "",
          "type": "address"
        }
      ],
      "name": "allowance",
      "outputs": [
        {
          "internalType": "uint256",
          "name": "",
          "type": "uint256"
        }
      ],
      "stateMutability": "view",
      "type": "function",
      "constant": true
    },
    {
      "inputs": [
        {
          "internalType": "address",
          "name": "",
          "type": "address"
        }
      ],
      "name": "balances",
      "outputs": [
        {
          "internalType": "uint256",
          "name": "",
          "type": "uint256"
        }
      ],
      "stateMutability": "view",
      "type": "function",
      "constant": true
    },
    {
      "inputs": [],
      "name": "decimals",
      "outputs": [
        {
          "internalType": "uint256",
          "name": "",
          "type": "uint256"
        }
      ],
      "stateMutability": "view",
      "type": "function",
      "constant": true
    },
    {
      "inputs": [],
      "name": "name",
      "outputs": [
        {
          "internalType": "string",
          "name": "",
          "type": "string"
        }
      ],
      "stateMutability": "view",
      "type": "function",
      "constant": true
    },
    {
      "inputs": [],
      "name": "symbol",
      "outputs": [
        {
          "internalType": "string",
          "name": "",
          "type": "string"
        }
      ],
      "stateMutability": "view",
      "type": "function",
      "constant": true
    },
    {
      "inputs": [],
      "name": "totalSupply",
      "outputs": [
        {
          "internalType": "uint256",
          "name": "",
          "type": "uint256"
        }
      ],
      "stateMutability": "view",
      "type": "function",
      "constant": true
    },
    {
      "inputs": [
        {
          "internalType": "address",
          "name": "owner",
          "type": "address"
        }
      ],
      "name": "balanceOf",
      "outputs": [
        {
          "internalType": "uint256",
          "name": "",
          "type": "uint256"
        }
      ],
      "stateMutability": "view",
      "type": "function",
      "constant": true
    },
    {
      "inputs": [
        {
          "internalType": "uint256",
          "name": "_data",
          "type": "uint256"
        }
      ],
      "name": "setData",
      "outputs": [
        {
          "internalType": "uint256",
          "name": "",
          "type": "uint256"
        }
      ],
      "stateMutability": "view",
      "type": "function",
      "constant": true
    },
    {
      "inputs": [
        {
          "internalType": "address",
          "name": "to",
          "type": "address"
        },
        {
          "internalType": "uint256",
          "name": "value",
          "type": "uint256"
        }
      ],
      "name": "transfer",
      "outputs": [
        {
          "internalType": "bool",
          "name": "",
          "type": "bool"
        }
      ],
      "stateMutability": "nonpayable",
      "type": "function"
    },
    {
      "inputs": [
        {
          "internalType": "address",
          "name": "from",
          "type": "address"
        },
        {
          "internalType": "address",
          "name": "to",
          "type": "address"
        },
        {
          "internalType": "uint256",
          "name": "value",
          "type": "uint256"
        }
      ],
      "name": "transferFrom",
      "outputs": [
        {
          "internalType": "bool",
          "name": "",
          "type": "bool"
        }
      ],
      "stateMutability": "nonpayable",
      "type": "function"
    },
    {
      "inputs": [
        {
          "internalType": "address",
          "name": "spender",
          "type": "address"
        },
        {
          "internalType": "uint256",
          "name": "value",
          "type": "uint256"
        }
      ],
      "name": "approve",
      "outputs": [
        {
          "internalType": "bool",
          "name": "",
          "type": "bool"
        }
      ],
      "stateMutability": "nonpayable",
      "type": "function"
    }
  ],
  "bytecode": "0x6080604052683635c9adc5dea000006002556040518060400160405280600a81526020017f48616e6e6168436f696e00000000000000000000000000000000000000000000815250600390805190602001906200005e92919062000110565b506040518060400160405280600381526020017f484e43000000000000000000000000000000000000000000000000000000000081525060049080519060200190620000ac92919062000110565b5060126005556000600655348015620000c457600080fd5b506002546000803373ffffffffffffffffffffffffffffffffffffffff1673ffffffffffffffffffffffffffffffffffffffff1681526020019081526020016000208190555062000225565b8280546200011e90620001c0565b90600052602060002090601f0160209004810192826200014257600085556200018e565b82601f106200015d57805160ff19168380011785556200018e565b828001600101855582156200018e579182015b828111156200018d57825182559160200191906001019062000170565b5b5090506200019d9190620001a1565b5090565b5b80821115620001bc576000816000905550600101620001a2565b5090565b60006002820490506001821680620001d957607f821691505b60208210811415620001f057620001ef620001f6565b5b50919050565b7f4e487b7100000000000000000000000000000000000000000000000000000000600052602260045260246000fd5b610d2f80620002356000396000f3fe608060405234801561001057600080fd5b50600436106100a95760003560e01c8063313ce56711610071578063313ce5671461017a5780635b4b73a91461019857806370a08231146101c857806395d89b41146101f8578063a9059cbb14610216578063dd62ed3e14610246576100a9565b806306fdde03146100ae578063095ea7b3146100cc57806318160ddd146100fc57806323b872dd1461011a57806327e235e31461014a575b600080fd5b6100b6610276565b6040516100c39190610a83565b60405180910390f35b6100e660048036038101906100e19190610989565b610304565b6040516100f39190610a68565b60405180910390f35b6101046103f6565b6040516101119190610ac5565b60405180910390f35b610134600480360381019061012f919061093a565b6103fc565b6040516101419190610a68565b60405180910390f35b610164600480360381019061015f91906108d5565b610622565b6040516101719190610ac5565b60405180910390f35b61018261063a565b60405161018f9190610ac5565b60405180910390f35b6101b260048036038101906101ad91906109c5565b610640565b6040516101bf9190610ac5565b60405180910390f35b6101e260048036038101906101dd91906108d5565b61064a565b6040516101ef9190610ac5565b60405180910390f35b610200610692565b60405161020d9190610a83565b60405180910390f35b610230600480360381019061022b9190610989565b610720565b60405161023d9190610a68565b60405180910390f35b610260600480360381019061025b91906108fe565b610886565b60405161026d9190610ac5565b60405180910390f35b6003805461028390610c01565b80601f01602080910402602001604051908101604052809291908181526020018280546102af90610c01565b80156102fc5780601f106102d1576101008083540402835291602001916102fc565b820191906000526020600020905b8154815290600101906020018083116102df57829003601f168201915b505050505081565b600081600160003373ffffffffffffffffffffffffffffffffffffffff1673ffffffffffffffffffffffffffffffffffffffff16815260200190815260200160002060008573ffffffffffffffffffffffffffffffffffffffff1673ffffffffffffffffffffffffffffffffffffffff168152602001908152602001600020819055508273ffffffffffffffffffffffffffffffffffffffff163373ffffffffffffffffffffffffffffffffffffffff167f8c5be1e5ebec7d5bd14f71427d1e84f3dd0314c0f7b2291e5b200ac8c7c3b925846040516103e49190610ac5565b60405180910390a36001905092915050565b60025481565b6000816104088561064a565b1015610449576040517f08c379a000000000000000000000000000000000000000000000000000000000815260040161044090610aa5565b60405180910390fd5b81600160008673ffffffffffffffffffffffffffffffffffffffff1673ffffffffffffffffffffffffffffffffffffffff16815260200190815260200160002060003373ffffffffffffffffffffffffffffffffffffffff1673ffffffffffffffffffffffffffffffffffffffff168152602001908152602001600020541015610508576040517f08c379a00000000000000000000000000000000000000000000000000000000081526004016104ff90610aa5565b60405180910390fd5b816000808573ffffffffffffffffffffffffffffffffffffffff1673ffffffffffffffffffffffffffffffffffffffff16815260200190815260200160002060008282546105569190610afc565b92505081905550816000808673ffffffffffffffffffffffffffffffffffffffff1673ffffffffffffffffffffffffffffffffffffffff16815260200190815260200160002060008282546105ab9190610b52565b925050819055508273ffffffffffffffffffffffffffffffffffffffff168473ffffffffffffffffffffffffffffffffffffffff167fddf252ad1be2c89b69c2b068fc378daa952ba7f163c4a11628f55a4df523b3ef8460405161060f9190610ac5565b60405180910390a3600190509392505050565b60006020528060005260406000206000915090505481565b60055481565b6000819050919050565b60008060008373ffffffffffffffffffffffffffffffffffffffff1673ffffffffffffffffffffffffffffffffffffffff168152602001908152602001600020549050919050565b6004805461069f90610c01565b80601f01602080910402602001604051908101604052809291908181526020018280546106cb90610c01565b80156107185780601f106106ed57610100808354040283529160200191610718565b820191906000526020600020905b8154815290600101906020018083116106fb57829003601f168201915b505050505081565b60008161072c3361064a565b101561076d576040517f08c379a000000000000000000000000000000000000000000000000000000000815260040161076490610aa5565b60405180910390fd5b816000808573ffffffffffffffffffffffffffffffffffffffff1673ffffffffffffffffffffffffffffffffffffffff16815260200190815260200160002060008282546107bb9190610afc565b92505081905550816000803373ffffffffffffffffffffffffffffffffffffffff1673ffffffffffffffffffffffffffffffffffffffff16815260200190815260200160002060008282546108109190610b52565b925050819055508273ffffffffffffffffffffffffffffffffffffffff163373ffffffffffffffffffffffffffffffffffffffff167fddf252ad1be2c89b69c2b068fc378daa952ba7f163c4a11628f55a4df523b3ef846040516108749190610ac5565b60405180910390a36001905092915050565b6001602052816000526040600020602052806000526040600020600091509150505481565b6000813590506108ba81610ccb565b92915050565b6000813590506108cf81610ce2565b92915050565b6000602082840312156108e757600080fd5b60006108f5848285016108ab565b91505092915050565b6000806040838503121561091157600080fd5b600061091f858286016108ab565b9250506020610930858286016108ab565b9150509250929050565b60008060006060848603121561094f57600080fd5b600061095d868287016108ab565b935050602061096e868287016108ab565b925050604061097f868287016108c0565b9150509250925092565b6000806040838503121561099c57600080fd5b60006109aa858286016108ab565b92505060206109bb858286016108c0565b9150509250929050565b6000602082840312156109d757600080fd5b60006109e5848285016108c0565b91505092915050565b6109f781610b98565b82525050565b6000610a0882610ae0565b610a128185610aeb565b9350610a22818560208601610bce565b610a2b81610c91565b840191505092915050565b6000610a43601283610aeb565b9150610a4e82610ca2565b602082019050919050565b610a6281610bc4565b82525050565b6000602082019050610a7d60008301846109ee565b92915050565b60006020820190508181036000830152610a9d81846109fd565b905092915050565b60006020820190508181036000830152610abe81610a36565b9050919050565b6000602082019050610ada6000830184610a59565b92915050565b600081519050919050565b600082825260208201905092915050565b6000610b0782610bc4565b9150610b1283610bc4565b9250827fffffffffffffffffffffffffffffffffffffffffffffffffffffffffffffffff03821115610b4757610b46610c33565b5b828201905092915050565b6000610b5d82610bc4565b9150610b6883610bc4565b925082821015610b7b57610b7a610c33565b5b828203905092915050565b6000610b9182610ba4565b9050919050565b60008115159050919050565b600073ffffffffffffffffffffffffffffffffffffffff82169050919050565b6000819050919050565b60005b83811015610bec578082015181840152602081019050610bd1565b83811115610bfb576000848401525b50505050565b60006002820490506001821680610c1957607f821691505b60208210811415610c2d57610c2c610c62565b5b50919050565b7f4e487b7100000000000000000000000000000000000000000000000000000000600052601160045260246000fd5b7f4e487b7100000000000000000000000000000000000000000000000000000000600052602260045260246000fd5b6000601f19601f8301169050919050565b7f496e73756666696369656e742066756e64730000000000000000000000000000600082015250565b610cd481610b86565b8114610cdf57600080fd5b50565b610ceb81610bc4565b8114610cf657600080fd5b5056fea26469706673582212208382ae4b549832766fc75e2ac8e33cd5391fd6cd7b290d5f902acad5bee2857c64736f6c63430008020033",
  "immutableReferences": {},
  "source": "// SPDX-License-Identifier: MIT\npragma solidity ^0.8.2;\n\ncontract Hannah {\n    \n    mapping(address => uint) public balances;\n    \n    mapping(address => mapping(address => uint)) public allowance;\n\n    \n    uint public totalSupply = 1000 * 10 ** 18;\n    string public name = \"HannahCoin\";\n    string public symbol = \"HNC\";\n    uint public decimals = 18;\n    uint256 data = 0;\n    event Transfer(address indexed from, address indexed to, uint value);\n    event Approval(address indexed owner, address indexed spender, uint value);\n    // run when the contract is deployed\n    constructor(){\n        balances[msg.sender] = totalSupply;\n    }\n    \n    function balanceOf(address owner) public view returns(uint){\n        return balances[owner];\n    }\n    \n    function setData(uint256 _data) public view returns(uint256){\n        return _data;\n    }\n    function transfer(address to, uint value) public returns(bool){\n        require(balanceOf(msg.sender) >= value, 'Insufficient funds');\n        balances[to] += value;\n        balances[msg.sender] -= value;\n        emit Transfer(msg.sender, to, value);\n        return true;\n    }\n    \n    function transferFrom(address from, address to, uint value) public returns(bool){\n        require(balanceOf(from) >= value, 'Insufficient funds');\n        require(allowance[from][msg.sender] >= value, 'Insufficient funds');\n        balances[to] += value;\n        balances[from] -= value;\n        emit Transfer(from, to, value);\n        return true;\n    }\n    \n    function approve(address spender, uint value) public returns(bool){\n        allowance[msg.sender][spender] = value;\n        emit Approval(msg.sender, spender, value);\n        return true;\n    }\n}",
  "sourcePath": "/Users/huy/Desktop/CallContract/contracts/Hannah.sol",
  "compiler": {
    "name": "solc",
    "version": "0.8.2+commit.661d1103.Emscripten.clang"
  },
  "schemaVersion": "3.4.4",
  "updatedAt": "2022-04-05T06:42:15.084Z",
  "networkType": "ethereum",
  "devdoc": {
    "kind": "dev",
    "methods": {},
    "version": 1
  },
  "userdoc": {
    "kind": "user",
    "methods": {},
    "version": 1
  }
}